:100000000C94E3010C940B020C940B020C940B0265
:100010000C940B020C940B020C940B020C940B022C
:100020000C940B020C940B020C940B020C940B021C
:100030000C940B020C940B020C940B020C940B020C
:100040000C949E070C940B020C946C070C944607BE
:100050000C940B020C940B020C940B020C940B02EC
:100060000C940B020C940B020000000023002600ED
:10007000290000000000240027002A0000000000E2
:10008000250028002B0004040404040404040202D4
:100090000202020203030303030301020408102007
:1000A0004080010204081020010204081020000012
:1000B0000008000201000003040700000000000027
:1000C00000002D2D2D2D2D2D2D2D2D2D2D2D2D2DBA
:1000D0002D2D2D2D2D2D2D2D2D2D2D2D2D2D2D2D50
:1000E0002D2D2D2D2D2D2D2D2D2D2D2D2D2D2D2D40
:1000F0002D2D2D2D2D2D00202020202020202020D2
:1001000020202020687474703A2F2F7777772E671D
:1001100065656B666163746F72792E6D782020203F
:1001200020202020202020202020002020202020EF
:10013000202020202020204746425554544F4E2056
:100140004C49425241525920544553542050524F29
:100150004752414D20202020202020202020200018
:100160002D2D2D2D2D2D2D2D2D2D2D2D2D2D2D2DBF
:100170002D2D2D2D2D2D2D2D2D2D2D2D2D2D2D2DAF
:100180002D2D2D2D2D2D2D2D2D2D2D2D2D2D2D2D9F
:100190002D2D2D2D004F6E20627574746F6E2069A9
:1001A000732070726573736564004F6E206275749E
:1001B000746F6E2069732070726573736564004F8D
:1001C0006E20627574746F6E20697320707265732F
:1001D00073656400007CFE928AFE7C00008088FECD
:1001E000FE80800000C4E6A2929E8C000044C6926D
:1001F00092FE6C0000302824FEFE2000004ECE8AC5
:100200008AFA7200007CFE9292F66400000606E212
:10021000FA1E0600006CFE9292FE6C00004CDE920C
:1002200092FE7C000040E8A8A8F8F00000FEFE90D6
:1002300090F060000070F88888D850000060F0905E
:1002400090FEFE000070F8A8A8B830000020FCFE68
:10025000222604000018BCA4A4FC7C0000FEFE10B2
:1002600010F0E000000080F4F48000000060E08006
:10027000FA7A000000FEFE2070D88800000000FE20
:10028000FE00000000F8F830E030F8F800F8F81848
:1002900018F8F0000070F88888F8700000FCFC2462
:1002A000243C180000183C24FCFC80C000F8F8082E
:1002B000083830000090A8A8A8A84800001010FC3A
:1002C000FC1010000078F88080F8F800003070C052
:1002D000C07030000078F880F080F8780088D8701E
:1002E00070D888000018B8A0A0F878000000C8E80E
:1002F000B898000000FCFE1212FEFC0000FEFE9208
:1003000092FE6C00007CFE8282C6440000FEFE82EB
:1003100082FE7C0000FEFE929292820000FEFE129F
:1003200012120200007CFE82A2E6640000FEFE10B3
:1003300010FEFE00000082FEFE8200000060E082EF
:10034000FE7E020000FEFE386CC6820000FEFE80CB
:100350008080800000FEFE0C180CFEFE00FEFE0CED
:100360001830FEFE007CFE8282FE7C0000FEFE2233
:10037000223E1C00003C7E4262FEBC0000FEFE32BB
:1003800072DE8C00004CDE9292F66400000602FEE3
:10039000FE020600007EFE8080FEFE00003E7EC063
:1003A000C07E3E0000FEFE603060FEFE00C6EE38FD
:1003B0001038EEC6000E1EF0F01E0E0000C2E2B2B3
:1003C0009A8E8600E80711241FBECFEFD8E0DEBF6B
:1003D000CDBF11E0A0E0B1E0EAE0F4E102C0059099
:1003E0000D92AE32B107D9F722E0AEE2B1E001C022
:1003F0001D92AA38B207E1F711E0C3EED1E004C0C4
:100400002197FE010E94FD09C23ED107C9F70E9453
:10041000A3080C94030A0C940000AF92BF92CF92F1
:10042000DF92EF92FF920F931F93CF93DF936C01B4
:100430007B018B01040F151FEB015E01AE18BF0895
:10044000C017D10759F06991D601ED91FC91019047
:10045000F081E02DC6010995892B79F7C501DF915F
:10046000CF911F910F91FF90EF90DF90CF90BF90B1
:10047000AF900895FC01538D448D252F30E0842FDB
:1004800090E0821B930B541710F0CF9608950197BC
:100490000895FC01918D828D981761F0A28DAE0FA9
:1004A000BF2FB11D5D968C91928D9F5F9F73928F30
:1004B00090E008958FEF9FEF0895FC01918D828D5C
:1004C000981731F0828DE80FF11D858D90E0089529
:1004D0008FEF9FEF0895FC01918D228D892F90E081
:1004E000805C9F4F821B91098F739927089587E342
:1004F00091E00E946B0221E0892B09F420E0822F19
:10050000089580E090E0892B29F00E947702811104
:100510000C9400000895FC01A48DA80FB92FB11D03
:10052000A35ABF4F2C91848D90E001968F73992729
:10053000848FA689B7892C93A089B1898C91837007
:1005400080648C93938D848D981306C00288F38900
:10055000E02D80818F7D80830895EF92FF920F932D
:100560001F93CF93DF93EC0181E0888F9B8D8C8D5F
:1005700098131AC0E889F989808185FF15C09FB753
:10058000F894EE89FF896083E889F9898081837016
:10059000806480839FBF81E090E0DF91CF911F91C5
:1005A0000F91FF90EF900895F62E0B8D10E00F5FE6
:1005B0001F4F0F731127E02E8C8D8E110CC00FB6BC
:1005C00007FCFACFE889F989808185FFF5CFCE0154
:1005D0000E948B02F1CFEB8DEC0FFD2FF11DE35A42
:1005E000FF4FF0829FB7F8940B8FEA89FB898081D7
:1005F0008062CFCF0F931F93CF93DF938C01D0E016
:10060000C0E0F801EC0FFD1F6491662341F087E321
:1006100091E00E94AD02892B11F02196F2CF42E0C9
:1006200050E06AE171E087E391E00E940D028C0FD7
:100630009D1FDF91CF911F910F910895CF93DF936D
:10064000EC01888D8823B9F0AA89BB89E889F989EA
:100650008C9185FD03C0808186FD0DC00FB607FC1F
:10066000F7CF8C9185FFF2CF808185FFEDCFCE0152
:100670000E948B02E9CFDF91CF910895833081F002
:1006800028F4813099F08230A9F008958730A9F0DC
:100690008830C9F08430B1F4809180008F7D03C030
:1006A000809180008F7780938000089584B58F7744
:1006B00084BD089584B58F7DFBCF8091B0008F7786
:1006C0008093B00008958091B0008F7DF9CF1F9383
:1006D000CF93DF93282F30E0F901E255FF4F84914B
:1006E000F901E656FF4FD491F901EA57FF4FC49143
:1006F000CC23A9F0162F81110E943E03EC2FF0E0CD
:10070000EE0FFF1FE458FF4FA591B4918FB7F894F7
:10071000EC91111108C0D095DE23DC938FBFDF91DF
:10072000CF911F910895DE2BF8CFCF93DF9390E008
:10073000FC01E656FF4F24918A579F4FFC0184919C
:100740008823C9F090E0880F991FFC01EE58FF4FF5
:10075000A591B491FC01E458FF4FC591D49161116A
:100760000DC09FB7F8948C91209582238C9388813B
:10077000282328839FBFDF91CF910895623051F4E1
:100780009FB7F8943C91822F809583238C93E881C6
:100790002E2BEFCF8FB7F894EC912E2B2C938FBF8D
:1007A000EACF3FB7F8948091330190913401A09142
:1007B0003501B091360126B5A89B05C02F3F19F031
:1007C0000196A11DB11D3FBFBA2FA92F982F8827D1
:1007D000BC01CD01620F711D811D911D42E0660FAC
:1007E000771F881F991F4A95D1F708952FB7F8945E
:1007F00060912F017091300180913101909132010F
:100800002FBF08950F931F93CF93DF93EC012B819C
:1008100030E0F901E255FF4F8491F901E656FF4FB0
:100820000491F901EA57FF4F14911123F1F081115E
:100830000E943E03E12FF0E0EE0FFF1FE859FF4F4B
:10084000A591B491EC910E2331E020E009F430E061
:10085000832F922F2A81223010F421E08227817089
:10086000DF91CF911F910F91089590E080E0F2CF3A
:100870000F931F93CF93DF93EC018881998181308F
:10088000910581F130F0029709F474C01982188241
:1008900024C08C859D85892B89F00E94F6030A89E6
:1008A0001B892C893D89601B710B820B930B683E61
:1008B00073408105910510F01D861C86CE010E94B3
:1008C0000204882351F00E94F6036E877F87888B8D
:1008D000998B81E090E099838883DF91CF911F917C
:1008E0000F9108950E94F6030E851F852889398986
:1008F000AB01BC01401B510B620B730B8E819F81BE
:10090000B0E0A0E0481759076A077B0730F3CE0133
:100910000E940204882309F4B9CF1B861A868E8DA3
:100920008E7F86608E8F8C859D85892B31F40E9409
:10093000F6036A8B7B8B8C8B9D8B888599850196C2
:10094000998788878C859D8501969D878C87EE8900
:10095000FF89309711F0CE0109958C859D8502970E
:1009600030F0EC8DFD8D309711F0CE01099582E0CD
:1009700090E0B1CFCE010E9402048823C9F10E9409
:10098000F6030E851F8528893989AB01BC01401B00
:10099000510B620B730B8C819D81B0E0A0E0481776
:1009A00059076A077B0708F498CF0E94F6030E8563
:1009B0001F8528893989DC01CB01801B910BA20B93
:1009C000B30B2A853B85820F931F9B878A870E94E2
:1009D000F6036E877F87888B998BE88DF98D30972A
:1009E00011F0CE0109958E8D8B7F81608E8F75CF32
:1009F000EA8DFB8D309709F449CFCE01099546CF9A
:100A0000CF92DF92EF92FF920F931F93CF93DF93DA
:100A100000D0CDB7DEB769834A83880F991F009154
:100A20002A0210912B02000F111FE4EDF1E09F014B
:100A3000245D31402017310714F41192F8CF298139
:100A4000FC01EC52FE4F21838A81808360E080911B
:100A500028020E9467031016110604F501501109BF
:100A6000F801EC52FE4FE080D0902602C0902402A4
:100A700088E0F82E6E2D661F6627661F8C2D0E945B
:100A80006703EE0C61E08D2D0E94670360E08D2D01
:100A90000E946703FA94F110EDCFDDCF61E0809101
:100AA00028020F900F90DF91CF911F910F91FF902F
:100AB000EF90DF90CF900C946703EF92FF921F931B
:100AC000CF93DF9320912A0230912B028217930754
:100AD000B4F4EC0123E0880F991F2A95E1F79C01FB
:100AE0002C513E4F790111E0F70111927F0140E056
:100AF000612FCE010E9400051F5F1930A9F7DF9119
:100B0000CF911F91FF90EF900895CF93DF93D0E0A6
:100B1000C0E080912A0290912B02C817D9072CF4CB
:100B2000CE010E945D052196F4CFDF91CF9108950B
:100B30002F923F924F925F926F927F928F929F92ED
:100B4000AF92BF92CF92DF92EF92FF920F931F93DB
:100B5000CF93DF93CDB7DEB760970FB6F894DEBFC3
:100B60000FBECDBF7C0160902A0270902B0263E023
:100B7000660C771C6A95E1F7FC0101900020E9F70B
:100B800031978E1B9F0B9C0173E0220F331F7A95C8
:100B9000E1F73E872D874D855E85461557050CF09C
:100BA0005CC143012701F70101900020E9F731976B
:100BB000EE19FF09C2018E199F098E179F0708F0D1
:100BC00024C1F20181912F0198E0E0E0F1E0DE0123
:100BD000119601900D929A95E1F79FEB980F9A313B
:100BE00038F5F8E08F02C0011124DE01119630E0E3
:100BF00020E084519F4FFC01E20FF31FE491ED933D
:100C00002F5F3F4F28303105B1F780912C028111C1
:100C100076C010E000E0B801680D791D90E080E03A
:100C2000683071050CF442C0019668507109F8CF24
:100C30009FE9980F9A31A8F428E08202C00111249C
:100C4000DE01119630E020E0845E9040FC01E20F6E
:100C5000F31FE491ED932F5F3F4F28303105B1F73B
:100C6000D4CF90ED980F9A30A8F438E08302C001F9
:100C70001124DE01119630E020E08C5A9F4FFC01D8
:100C8000E20FF31FE491ED932F5F3F4F28303105C2
:100C9000B1F7BBCF803209F0B8CF19821A821B821C
:100CA0001C821D821E821F821886AFCF20912A02CD
:100CB00030912B0282179307F4F468307105A8F481
:100CC000E1E0F0E0EC0FFD1FE00FF11F4081FC01BF
:100CD00053E0EE0FFF1F5A95E1F7EC52FE4FE60F7F
:100CE000F71F408B6F5F0E9400050F5F1F4F08309A
:100CF000110509F090CFE8E08E0E911C54CF809141
:100D00002A0290912B02019723E0880F991F2A95C0
:100D1000E1F7AC01481959095A87498738E0A32EF1
:100D2000B12C20912A0230912B0289010150110926
:100D300089859A858A199B0997FF04C0015011097A
:100D40000896FACF0F3F5FEF1507ACF20F3F100781
:100D500009F453C0021713070CF04FC088309105F7
:100D60000CF04BC0F501319721E030E02C0F3D1F16
:100D7000E20FF31F2081A80193E0440F551F9A95BD
:100D8000E1F75C874B87E0E8F0E002C0F595E79576
:100D90008A95E2F72E2E3E2E3094D12CC12C422F74
:100DA00050E0588B4F8780912A0290912B020817B0
:100DB0001907E4F4EB85FC85EC0DFD1DEC52FE4FAC
:100DC000808927E030E02C193D094F85588902C001
:100DD000559547952A95E2F740FF15C08229808BEB
:100DE000408961E06C0DC8010E9400055FEFC51AE3
:100DF000D50A88E0C816D104B1F691E0A91AB10865
:100E000009F08FCF78CF8321EACF0E94D1031B0155
:100E10002C0188EC882E912CA12CB12C0E94D1039E
:100E20006219730984099509683E7340810591052B
:100E3000A8F3F1E08F1A9108A108B10828EE220E5C
:100E400023E0321E411C511C81149104A104B10401
:100E500029F741E0641A71089ECE60960FB6F894A7
:100E6000DEBF0FBECDBFDF91CF911F910F91FF90DD
:100E7000EF90DF90CF90BF90AF909F908F907F903A
:100E80006F905F904F903F902F9008951F920F9218
:100E90000FB60F9211242F933F934F935F936F934D
:100EA0007F938F939F93AF93BF93EF93FF9387E3CA
:100EB00091E00E948B02FF91EF91BF91AF919F91C2
:100EC0008F917F916F915F914F913F912F910F90F3
:100ED0000FBE0F901F9018951F920F920FB60F9292
:100EE00011242F938F939F93EF93FF93E0914701EA
:100EF000F09148018081E0914D01F0914E0182FD19
:100F00001BC09081809150018F5F8F7320915101A0
:100F1000821741F0E0915001F0E0E95CFE4F958FBF
:100F200080935001FF91EF919F918F912F910F909E
:100F30000FBE0F901F9018958081F4CF1F920F92D3
:100F40000FB60F9211242F933F938F939F93AF93DC
:100F5000BF9380912F0190913001A0913101B09108
:100F6000320130912E0123E0230F2D3758F50196E1
:100F7000A11DB11D20932E0180932F01909330016C
:100F8000A0933101B09332018091330190913401EB
:100F9000A0913501B09136010196A11DB11D80933C
:100FA000330190933401A0933501B0933601BF9182
:100FB000AF919F918F913F912F910F900FBE0F9006
:100FC0001F90189526E8230F0296A11DB11DD2CFC0
:100FD000DF92EF92FF920F931F93CF93DF93E7E39C
:100FE000F1E01382128288EE93E0A0E0B0E0848307
:100FF0009583A683B7838CE091E09183808385EC11
:1010000090E09587848784EC90E09787868780ECD2
:1010100090E0918B808B81EC90E0938B828B82ECC3
:1010200090E0958B848B86EC90E0978B868B118E6D
:10103000128E138E148ECBE6D2E01982188262E0F3
:1010400084E00E949503198218821E861F86188AE2
:10105000198A1A8A1B8A1C8A1D8A84E08B83DD24E4
:10106000D394DA8288E8E82E83E1F82EFD82EC82C0
:1010700004E110E01F830E83198618861B861A86EA
:101080001D861C861F8A1E8A198E188E1B8E1A8E2C
:101090001D8E1C8E1E8ECCE4D2E01982188262E076
:1010A00082E00E949503198218821E861F86188A84
:1010B000198A1A8A1B8A1C8A1D8A82E08B83DA822B
:1010C000FD82EC821F830E83198618861B861A8682
:1010D0001D861C861F8A1E8A198E188E1B8E1A8EDC
:1010E0001D8E1C8E1E8ECDE2D2E01982188262E027
:1010F00087E00E949503198218821E861F86188A2F
:10110000198A1A8A1B8A1C8A1D8A87E08B83DA82D5
:10111000FD82EC821F830E83198618861B861A8631
:101120001D861C861F8A1E8A198E188E1B8E1A8E8B
:101130001D8E1C8E1E8EDF91CF911F910F91FF90FF
:10114000EF90DF900895789484B5826084BD84B573
:10115000816084BD85B5826085BD85B5816085BDB2
:1011600080916E00816080936E001092810080916A
:1011700081008260809381008091810081608093F2
:101180008100809180008160809380008091B10017
:1011900084608093B1008091B00081608093B00042
:1011A00080917A00846080937A0080917A008260D6
:1011B00080937A0080917A00816080937A00809198
:1011C0007A00806880937A001092C100CCE0D0E071
:1011D000D0932502C09324028BE090E090932702E5
:1011E000809326028AE090E090932902809328025F
:1011F00010922C0282E090E090932B0280932A02BE
:1012000061E08CE00E94950361E0809126020E94DB
:10121000950361E0809128020E94950361E080912E
:1012200028020E946703D0932502C0932402E4EEB3
:10123000F1E084E292E011928E179F07E1F7D0E08F
:10124000C0E080912A0290912B02C817D9073CF583
:1012500040E06FE0CE010E94000580912A0290914B
:101260002B02C817D9072CF447E06BE0CE010E948F
:10127000000540E069E0CE010E940005CE010E9419
:101280005D0580912A0290912B02C817D9072CF492
:1012900040E06CE0CE010E9400052196D2CFD0E064
:1012A000C0E080912A0290912B02C817D907B4F4AC
:1012B00041E06CE0CE010E94000580912A029091ED
:1012C0002B02C817D9072CF448E06AE0CE010E942F
:1012D0000005CE010E945D052196E3CF10922C02FD
:1012E000E0914701F091480182E08083E091430161
:1012F000F09144011082E0914501F09146018FEC9C
:10130000808310924F01E0914B01F0914C0186E0F7
:101310008083E0914901F0914A018081806180835E
:10132000E0914901F0914A01808188608083E091D9
:101330004901F0914A01808180688083E0914901F0
:10134000F0914A0180818F7D808380E691E00E9448
:10135000FA028BE291E00E94FA0287EF90E00E948D
:10136000FA0282EC90E00E94FA02C0E0D0E08BE644
:1013700092E00E94380480916B0290916C02029777
:1013800051F48FEB91E00E94FA020E9485058DE1F5
:1013900091E00E9498058CE492E00E9438048091CC
:1013A0004C0290914D02029751F48AEA91E00E941A
:1013B000FA020E94850582E291E00E9498058DE282
:1013C00092E00E94380480912D0290912E020297A3
:1013D00051F485E991E00E94FA020E94850588E2B5
:1013E00091E00E949805209711F20E9477028823CD
:1013F00009F4BDCF0E940000BACFEE0FFF1F059089
:0A140000F491E02D0994F894FFCF59
:10140A0000082A1C771C2A0800000000AD020D0201
:10141A003A021E036B0249025D020D0A0073746FE1
:0E142A0070007269676874006C65667400007B
:00000001FF
