:020000040000FA
:100000000C9462000C948A000C948A000C948A0070
:100010000C948A000C948A000C948A000C948A0038
:100020000C948A000C948A000C948A000C948A0028
:100030000C948A000C948A000C948A000C948A0018
:100040000C94CE040C948A000C949C040C947604BA
:100050000C948A000C948A000C948A000C948A00F8
:100060000C948A000C948A000000000023002600F3
:10007000290000000000240027002A0000000000E2
:10008000250028002B0004040404040404040202D4
:100090000202020203030303030301020408102007
:1000A0004080010204081020010204081020000012
:1000B0000008000201000003040700000000000027
:1000C0000000180511241FBECFEFD8E0DEBFCDBF62
:1000D00011E0A0E0B1E0E8E8F6E102C005900D9281
:1000E000A231B107D9F722E0A2E1B1E001C01D922F
:1000F000AD38B207E1F710E0C2E6D0E004C02197C6
:10010000FE010E943C0BC136D107C9F70E94580579
:100110000C94420B0C940000AF92BF92CF92DF92EE
:10012000EF92FF920F931F93CF93DF936C017B01AC
:100130008B01040F151FEB015E01AE18BF08C0173D
:10014000D10759F06991D601ED91FC910190F081B0
:10015000E02DC6010995892B79F7C501DF91CF9173
:100160001F910F91FF90EF90DF90CF90BF90AF90D5
:100170000895FC01538D448D252F30E0842F90E0AD
:10018000821B930B541710F0CF9608950197089592
:10019000FC01918D828D981761F0A28DAE0FBF2F5B
:1001A000B11D5D968C91928D9F5F9F73928F90E0B1
:1001B00008958FEF9FEF0895FC01918D828D981720
:1001C00031F0828DE80FF11D858D90E008958FEF5D
:1001D0009FEF0895FC01918D228D892F90E0805C26
:1001E0009F4F821B91098F73992708958BE191E0AE
:1001F0000E94EA0021E0892B09F420E0822F089573
:1002000080E090E0892B29F00E94F60081110C9487
:1002100000000895FC01A48DA80FB92FB11DA35AA9
:10022000BF4F2C91848D90E001968F739927848F16
:10023000A689B7892C93A089B1898C918370806439
:100240008C93938D848D981306C00288F389E02DDA
:1002500080818F7D80830895EF92FF920F931F938B
:10026000CF93DF93EC0181E0888F9B8D8C8D981369
:100270001AC0E889F989808185FF15C09FB7F89475
:10028000EE89FF896083E889F989808183708064C1
:1002900080839FBF81E090E0DF91CF911F910F910C
:1002A000FF90EF900895F62E0B8D10E00F5F1F4F1B
:1002B0000F731127E02E8C8D8E110CC00FB607FC2A
:1002C000FACFE889F989808185FFF5CFCE010E94B8
:1002D0000A01F1CFEB8DEC0FFD2FF11DE35AFF4F1B
:1002E000F0829FB7F8940B8FEA89FB898081806246
:1002F000CFCFCF93DF93EC01888D8823B9F0AA8903
:10030000BB89E889F9898C9185FD03C0808186FDD0
:100310000DC00FB607FCF7CF8C9185FFF2CF80811F
:1003200085FFEDCFCE010E940A01E9CFDF91CF9189
:100330000895833081F028F4813099F08230A9F05B
:1003400008958730A9F08830C9F08430B1F48091E5
:1003500080008F7D03C0809180008F778093800024
:10036000089584B58F7784BD089584B58F7DFBCFC4
:100370008091B0008F778093B00008958091B00095
:100380008F7DF9CF1F93CF93DF93282F30E0F901B2
:10039000E255FF4F8491F901E656FF4FD491F901E0
:1003A000EA57FF4FC491CC23A9F0162F81110E9468
:1003B0009901EC2FF0E0EE0FFF1FE458FF4FA591DD
:1003C000B4918FB7F894EC91111108C0D095DE2349
:1003D000DC938FBFDF91CF911F910895DE2BF8CF73
:1003E000CF93DF9390E0FC01E656FF4F24918A57AC
:1003F0009F4FFC0184918823C9F090E0880F991FDA
:10040000FC01EE58FF4FA591B491FC01E458FF4F59
:10041000C591D49161110DC09FB7F8948C9120952E
:1004200082238C938881282328839FBFDF91CF91DB
:100430000895623051F49FB7F8943C91822F8095D3
:1004400083238C93E8812E2BEFCF8FB7F894EC9118
:100450002E2B2C938FBFEACF3FB7F89480911701D2
:1004600090911801A0911901B0911A0126B5A89B8D
:1004700005C02F3F19F00196A11DB11D3FBFBA2F36
:10048000A92F982F8827BC01CD01620F711D811DF6
:10049000911D42E0660F771F881F991F4A95D1F77B
:1004A00008958F929F92AF92BF92CF92DF92EF9278
:1004B000FF924B015C010E942C026B017C010E94A7
:1004C0002C026C197D098E099F09683E73408105D5
:1004D0009105A8F321E0821A9108A108B10888EEDD
:1004E000C80E83E0D81EE11CF11C81149104A10404
:1004F000B10429F7FF90EF90DF90CF90BF90AF90BD
:100500009F908F9008952FB7F89460911301709188
:10051000140180911501909116012FBF08950F933A
:100520001F93CF93DF93EC012B8130E0F901E2556B
:10053000FF4F8491F901E656FF4F0491F901EA5704
:10054000FF4F14911123F1F081110E949901E12FC5
:10055000F0E0EE0FFF1FE859FF4FA591B491EC9129
:100560000E2331E020E009F430E0832F922F2A811E
:10057000223010F421E082278170DF91CF911F910A
:100580000F91089590E080E0F2CF0F931F93CF93E7
:10059000DF93EC01888199818130910581F130F000
:1005A000029709F474C01982188224C08C859D8535
:1005B000892B89F00E9483020A891B892C893D8935
:1005C000601B710B820B930B683E73408105910594
:1005D00010F01D861C86CE010E948F02882351F0E8
:1005E0000E9483026E877F87888B998B81E090E0E1
:1005F00099838883DF91CF911F910F9108950E9475
:1006000083020E851F8528893989AB01BC01401BF7
:10061000510B620B730B8E819F81B0E0A0E04817F5
:1006200059076A077B0730F3CE010E948F028823A7
:1006300009F4B9CF1B861A868E8D8E7F86608E8FC9
:100640008C859D85892B31F40E9483026A8B7B8B7C
:100650008C8B9D8B888599850196998788878C8559
:100660009D8501969D878C87EE89FF89309711F0D3
:10067000CE0109958C859D85029730F0EC8DFD8D1E
:10068000309711F0CE01099582E090E0B1CFCE0114
:100690000E948F028823C9F10E9483020E851F8564
:1006A00028893989AB01BC01401B510B620B730BCC
:1006B0008C819D81B0E0A0E0481759076A077B074D
:1006C00008F498CF0E9483020E851F8528893989F6
:1006D000DC01CB01801B910BA20BB30B2A853B8560
:1006E000820F931F9B878A870E9483026E877F8772
:1006F000888B998BE88DF98D309711F0CE01099593
:100700008E8D8B7F81608E8F75CFEA8DFB8D3097BC
:1007100009F449CFCE01099546CF1F93CF93DF93BC
:10072000EC01162F1982188262E0812F0E94F001DD
:10073000198218821E861F86188A198A1A8A1B8AAD
:100740001C8A1D8A1B8381E08A8388E893E19D834C
:100750008C8384E190E09F838E83198618861B86A4
:100760001A861D861C861F8A1E8A198E188E1B8E5D
:100770001A8E1D8E1C8E1E8EDF91CF911F910895B3
:10078000CF92DF92EF92FF920F931F93CF93DF935D
:1007900000D0CDB7DEB769834A83880F991F0091D7
:1007A0000E0210910F02000F111FE8EBF1E09F0104
:1007B000285B31402017310714F41192F8CF2981BA
:1007C000FC01E854FE4F21838A81808360E08091A0
:1007D0000C020E94C2011016110604F50150110905
:1007E000F801E854FE4FE080D0900A02C090080261
:1007F00088E0F82E6E2D661F6627661F8C2D0E94DE
:10080000C201EE0C61E08D2D0E94C20160E08D2DD1
:100810000E94C201FA94F110EDCFDDCF61E080912A
:100820000C020F900F90DF91CF911F910F91FF90CD
:10083000EF90DF90CF900C94C201EF92FF921F9344
:10084000CF93DF9320910E0230910F02821793070E
:10085000B4F4EC0123E0880F991F2A95E1F79C017D
:1008600028533E4F790111E0F70111927F0140E0DA
:10087000612FCE010E94C0031F5F1930A9F7DF91DD
:10088000CF911F91FF90EF900895CF93DF93D0E029
:10089000C0E080910E0290910F02C817D9072CF486
:1008A000CE010E941D042196F4CFDF91CF910895CF
:1008B00020910E0230910F0212161306B4F4883004
:1008C000910598F420E830E002C0359527956A95A7
:1008D000E2F7FC01E854FE4F4089422B408B61E077
:1008E000680F90E080E00C94C00308951F920F926F
:1008F0000FB60F9211242F933F934F935F936F93F3
:100900007F938F939F93AF93BF93EF93FF938BE16D
:1009100091E00E940A01FF91EF91BF91AF919F91E9
:100920008F917F916F915F914F913F912F910F9098
:100930000FBE0F901F9018951F920F920FB60F9237
:1009400011242F938F939F93EF93FF93E0912B01AB
:10095000F0912C018081E0913101F091320182FD12
:100960001BC09081809134018F5F8F73209135017E
:10097000821741F0E0913401F0E0E55EFE4F958F83
:1009800080933401FF91EF919F918F912F910F9060
:100990000FBE0F901F9018958081F4CF1F920F9279
:1009A0000FB60F9211242F933F938F939F93AF9382
:1009B000BF938091130190911401A0911501B09102
:1009C00016013091120123E0230F2D3758F50196BF
:1009D000A11DB11D20931201809313019093140166
:1009E000A0931501B0931601809117019091180101
:1009F000A0911901B0911A010196A11DB11D80931A
:100A0000170190931801A0931901B0931A01BF9197
:100A1000AF919F918F913F912F910F900FBE0F90AB
:100A20001F90189526E8230F0296A11DB11DD2CF65
:100A3000EBE1F1E01382128288EE93E0A0E0B0E0F7
:100A400084839583A683B78384E091E09183808338
:100A500085EC90E09587848784EC90E09787868783
:100A600080EC90E0918B808B81EC90E0938B828B7B
:100A700082EC90E0958B848B86EC90E0978B868B54
:100A8000118E128E138E148E64E08EE692E00E9418
:100A90008D0362E08FE492E00E948D0367E080E3C3
:100AA00092E00E948D0366E081E192E00C948D0358
:100AB000789484B5826084BD84B5816084BD85B539
:100AC000826085BD85B5816085BD80916E00816045
:100AD00080936E00109281008091810082608093EB
:100AE00081008091810081608093810080918000ED
:100AF0008160809380008091B10084608093B10018
:100B00008091B00081608093B00080917A00846011
:100B100080937A0080917A00826080937A0080913D
:100B20007A00816080937A0080917A008068809357
:100B30007A001092C100CCE0D0E0D0930902C093BB
:100B400008028BE090E090930B0280930A028AE007
:100B500090E090930D0280930C021092100282E0BC
:100B600090E090930F0280930E0261E08CE00E946F
:100B7000F00161E080910A020E94F00161E0809141
:100B80000C020E94F00161E080910C020E94C201FF
:100B9000D0930902C0930802E8ECF1E0119282E0E0
:100BA000E830F807D9F7D0E0C0E080910E029091CC
:100BB0000F02C817D9073CF540E06FE0CE010E9454
:100BC000C00380910E0290910F02C817D9072CF430
:100BD00047E06BE0CE010E94C00340E069E0CE0137
:100BE0000E94C003CE010E941D0480910E029091CC
:100BF0000F02C817D9072CF440E06CE0CE010E9428
:100C0000C0032196D2CFD0E0C0E080910E02909137
:100C10000F02C817D907B4F441E06CE0CE010E947E
:100C2000C00380910E0290910F02C817D9072CF4CF
:100C300048E06AE0CE010E94C003CE010E941D047C
:100C40002196E3CF10921002E0912B01F0912C013C
:100C500082E08083E0912701F09128011082E091E9
:100C60002901F0912A018FEC808310923301E091E9
:100C70002F01F091300186E08083E0912D01F09109
:100C80002E01808180618083E0912D01F0912E0101
:100C9000808188608083E0912D01F0912E01808118
:100CA00080688083E0912D01F0912E0180818F7DFD
:100CB000808380E0E82E80E0F82E81E192E00E94BF
:100CC000C50280912F0281FF05C08D7F80932F0286
:100CD0000E9445048EE692E00E94C50280916E0259
:100CE00090916F02029709F08EC170E060E090E091
:100CF00080E00E94580461E070E090E080E00E9493
:100D0000580462E070E090E080E00E94580463E0E4
:100D100070E090E080E00E94580464E070E090E0B1
:100D200080E00E94580465E070E090E080E00E945E
:100D3000580466E070E090E080E00E94580467E0AC
:100D400070E090E080E00E94580470E060E087E08E
:100D500090E00E94580461E070E087E090E00E941B
:100D6000580462E070E087E090E00E94580463E07D
:100D700070E087E090E00E94580464E070E087E053
:100D800090E00E94580465E070E087E090E00E94E7
:100D9000580466E070E087E090E00E94580467E045
:100DA00070E087E090E00E94580470E060E081E02D
:100DB00090E00E94580461E070E081E090E00E94C1
:100DC000580462E070E081E090E00E94580463E023
:100DD00070E081E090E00E94580464E070E081E0FF
:100DE00090E00E94580465E070E081E090E00E948D
:100DF000580466E070E081E090E00E94580467E0EB
:100E000070E081E090E00E94580470E060E086E0CD
:100E100090E00E94580461E070E086E090E00E945B
:100E2000580462E070E086E090E00E94580463E0BD
:100E300070E086E090E00E94580464E070E086E094
:100E400090E00E94580465E070E086E090E00E9427
:100E5000580466E070E086E090E00E94580467E085
:100E600070E086E090E00E94580470E060E082E06C
:100E700090E00E94580461E070E082E090E00E94FF
:100E8000580462E070E082E090E00E94580463E061
:100E900070E082E090E00E94580464E070E082E03C
:100EA00090E00E94580465E070E082E090E00E94CB
:100EB000580466E070E082E090E00E94580467E029
:100EC00070E082E090E00E94580470E060E085E00D
:100ED00090E00E94580461E070E085E090E00E949C
:100EE000580462E070E085E090E00E94580463E0FE
:100EF00070E085E090E00E94580464E070E085E0D6
:100F000090E00E94580465E070E085E090E00E9467
:100F1000580466E070E085E090E00E94580467E0C5
:100F200070E085E090E00E94580470E060E083E0AB
:100F300090E00E94580461E070E083E090E00E943D
:100F4000580462E070E083E090E00E94580463E09F
:100F500070E083E090E00E94580464E070E083E079
:100F600090E00E94580465E070E083E090E00E9409
:100F7000580466E070E083E090E00E94580467E067
:100F800070E083E090E00E94580470E060E084E04C
:100F900090E00E94580461E070E084E090E00E94DC
:100FA000580462E070E084E090E00E94580463E03E
:100FB00070E084E090E00E94580464E070E084E017
:100FC00090E00E94580465E070E084E090E00E94A8
:100FD000580466E070E084E090E00E94580467E006
:100FE00070E084E090E00E94580468EC70E080E0DB
:100FF00090E00E9451020E94450464E670E080E0A7
:1010000090E00E9451028FE492E00E94C50280911C
:101010004F0290915002029709F0C4C0D0E0C0E0A6
:101020000E94450464E070E0CE010E94580463E031
:1010300070E0CE010E9458046E0181E0C81AD10808
:1010400065E070E0C6010E94580462E070E0C601ED
:101050000E9458045E0182E0A81AB10866E070E0C0
:10106000C5010E94580461E070E0C5010E94580467
:101070008E010350110967E070E0C8010E94580416
:1010800070E060E0C8010E94580464E070E0C601AE
:101090000E94580463E070E0C6010E94580465E0B5
:1010A00070E0C5010E94580462E070E0C5010E9432
:1010B000580466E070E0C8010E94580461E070E0E6
:1010C000C8010E9458046E0184E0C81AD10867E084
:1010D00070E0C6010E94580470E060E0C6010E9402
:1010E000580464E070E0C5010E94580463E070E0B9
:1010F000C5010E94580465E070E0C8010E945804D0
:1011000062E070E0C8010E94580466E070E0C60129
:101110000E94580461E070E0C6010E9458045E011C
:1011200085E0A81AB10867E070E0C5010E94580484
:1011300070E060E0C5010E94580464E070E0C801FE
:101140000E94580463E070E0C8010E94580465E002
:1011500070E0C6010E94580462E070E0C6010E947F
:10116000580466E070E0C5010E94580461E070E038
:10117000C5010E9458040350110967E070E0C801DE
:101180000E94580470E060E0C8010E9458046AE0C0
:1011900070E080E090E00E9451022196C031D105BC
:1011A00009F03ECF80E392E00E94C50280913002B8
:1011B00090913102029709F0C5C0C7E0D0E00E94CB
:1011C000450464E070E0CE010E94580463E070E0E2
:1011D000CE010E9458046E018FEFC81AD80A65E04C
:1011E00070E0C6010E94580462E070E0C6010E94EF
:1011F00058045E0182E0A80EB11C66E070E0C501F3
:101200000E94580461E070E0C5010E9458048E01FC
:101210000D5F1F4F67E070E0C8010E94580470E046
:1012200060E0C8010E94580464E070E0C6010E94BA
:10123000580463E070E0C6010E94580465E070E065
:10124000C5010E94580462E070E0C5010E94580484
:1012500066E070E0C8010E94580461E070E0C801D7
:101260000E9458046E0184E0C80ED11C67E070E053
:10127000C6010E94580470E060E0C6010E94580454
:1012800064E070E0C5010E94580463E070E0C501AD
:101290000E94580465E070E0C8010E94580462E0B2
:1012A00070E0C8010E94580466E070E0C6010E9428
:1012B000580461E070E0C6010E9458045E0185E0B8
:1012C000A80EB11C67E070E0C5010E94580470E0F0
:1012D00060E0C5010E94580464E070E0C8010E940B
:1012E000580463E070E0C8010E94580465E070E0B3
:1012F000C6010E94580462E070E0C6010E945804D2
:1013000066E070E0C5010E94580461E070E0C5012C
:101310000E9458040D5F1F4F67E070E0C8010E94F3
:10132000580470E060E0C8010E9458046AE070E070
:1013300080E090E00E9451022197C63F8FEFD807CE
:1013400009F03DCF81E192E00E94C5028091110237
:1013500090911202029709F08CC170E060E090E079
:1013600080E00E94580461E070E090E080E00E941C
:10137000580462E070E090E080E00E94580463E06E
:1013800070E090E080E00E94580464E070E090E03B
:1013900080E00E94580465E070E090E080E00E94E8
:1013A000580466E070E090E080E00E94580467E036
:1013B00070E090E080E00E94580470E060E087E018
:1013C00090E00E94580461E070E087E090E00E94A5
:1013D000580462E070E087E090E00E94580463E007
:1013E00070E087E090E00E94580464E070E087E0DD
:1013F00090E00E94580465E070E087E090E00E9471
:10140000580466E070E087E090E00E94580467E0CE
:1014100070E087E090E00E94580470E060E081E0B6
:1014200090E00E94580461E070E081E090E00E944A
:10143000580462E070E081E090E00E94580463E0AC
:1014400070E081E090E00E94580464E070E081E088
:1014500090E00E94580465E070E081E090E00E9416
:10146000580466E070E081E090E00E94580467E074
:1014700070E081E090E00E94580470E060E086E057
:1014800090E00E94580461E070E086E090E00E94E5
:10149000580462E070E086E090E00E94580463E047
:1014A00070E086E090E00E94580464E070E086E01E
:1014B00090E00E94580465E070E086E090E00E94B1
:1014C000580466E070E086E090E00E94580467E00F
:1014D00070E086E090E00E94580470E060E082E0F6
:1014E00090E00E94580461E070E082E090E00E9489
:1014F000580462E070E082E090E00E94580463E0EB
:1015000070E082E090E00E94580464E070E082E0C5
:1015100090E00E94580465E070E082E090E00E9454
:10152000580466E070E082E090E00E94580467E0B2
:1015300070E082E090E00E94580470E060E085E096
:1015400090E00E94580461E070E085E090E00E9425
:10155000580462E070E085E090E00E94580463E087
:1015600070E085E090E00E94580464E070E085E05F
:1015700090E00E94580465E070E085E090E00E94F1
:10158000580466E070E085E090E00E94580467E04F
:1015900070E085E090E00E94580470E060E083E035
:1015A00090E00E94580461E070E083E090E00E94C7
:1015B000580462E070E083E090E00E94580463E029
:1015C00070E083E090E00E94580464E070E083E003
:1015D00090E00E94580465E070E083E090E00E9493
:1015E000580466E070E083E090E00E94580467E0F1
:1015F00070E083E090E00E94580470E060E084E0D6
:1016000090E00E94580461E070E084E090E00E9465
:10161000580462E070E084E090E00E94580463E0C7
:1016200070E084E090E00E94580464E070E084E0A0
:1016300090E00E94580465E070E084E090E00E9431
:10164000580466E070E084E090E00E94580467E08F
:1016500070E084E090E00E945804E114F10409F481
:101660002CCB0E94F600882309F427CB0E940000AF
:1016700024CB0E944504F1CFEE0FFF1F0590F4919B
:10168000E02D0994F894FFCF000000002C018C009D
:0A169000B9007901EA00C800DC008F
:107E0000112484B714BE81FFF0D085E080938100F7
:107E100082E08093C00088E18093C10086E0809377
:107E2000C20080E18093C4008EE0C9D0259A86E02C
:107E300020E33CEF91E0309385002093840096BBD3
:107E4000B09BFECF1D9AA8958150A9F7CC24DD24C4
:107E500088248394B5E0AB2EA1E19A2EF3E0BF2EE7
:107E6000A2D0813461F49FD0082FAFD0023811F036
:107E7000013811F484E001C083E08DD089C08234E0
:107E800011F484E103C0853419F485E0A6D080C0E4
:107E9000853579F488D0E82EFF2485D0082F10E0AE
:107EA000102F00270E291F29000F111F8ED06801E7
:107EB0006FC0863521F484E090D080E0DECF843638
:107EC00009F040C070D06FD0082F6DD080E0C81688
:107ED00080E7D80618F4F601B7BEE895C0E0D1E017
:107EE00062D089930C17E1F7F0E0CF16F0E7DF06D8
:107EF00018F0F601B7BEE89568D007B600FCFDCFD4
:107F0000A601A0E0B1E02C9130E011968C91119780
:107F100090E0982F8827822B932B1296FA010C0160
:107F200087BEE89511244E5F5F4FF1E0A038BF0790
:107F300051F7F601A7BEE89507B600FCFDCF97BE46
:107F4000E89526C08437B1F42ED02DD0F82E2BD052
:107F50003CD0F601EF2C8F010F5F1F4F84911BD097
:107F6000EA94F801C1F70894C11CD11CFA94CF0C13
:107F7000D11C0EC0853739F428D08EE10CD085E9AC
:107F80000AD08FE07ACF813511F488E018D01DD067
:107F900080E101D065CF982F8091C00085FFFCCF94
:107FA0009093C60008958091C00087FFFCCF809118
:107FB000C00084FD01C0A8958091C6000895E0E648
:107FC000F0E098E1908380830895EDDF803219F02E
:107FD00088E0F5DFFFCF84E1DECF1F93182FE3DFCA
:107FE0001150E9F7F2DF1F91089580E0E8DFEE27F6
:047FF000FF270994CA
:027FFE00040479
:00000001FF
